{
  "address": "0x4887C5C245C4830F46F0e7Cd977841FF02d1b6d7",
  "abi": [
    {
      "inputs": [
        {
          "internalType": "address",
          "name": "_votingTokenAddress",
          "type": "address"
        },
        {
          "internalType": "address",
          "name": "_nftContractAddress",
          "type": "address"
        }
      ],
      "stateMutability": "nonpayable",
      "type": "constructor"
    },
    {
      "anonymous": false,
      "inputs": [
        {
          "indexed": true,
          "internalType": "address",
          "name": "previousOwner",
          "type": "address"
        },
        {
          "indexed": true,
          "internalType": "address",
          "name": "newOwner",
          "type": "address"
        }
      ],
      "name": "OwnershipTransferred",
      "type": "event"
    },
    {
      "anonymous": false,
      "inputs": [
        {
          "indexed": false,
          "internalType": "uint256",
          "name": "proposalId",
          "type": "uint256"
        },
        {
          "indexed": false,
          "internalType": "address",
          "name": "creator",
          "type": "address"
        },
        {
          "indexed": false,
          "internalType": "string",
          "name": "description",
          "type": "string"
        },
        {
          "indexed": false,
          "internalType": "uint256",
          "name": "endTime",
          "type": "uint256"
        }
      ],
      "name": "ProposalCreated",
      "type": "event"
    },
    {
      "anonymous": false,
      "inputs": [
        {
          "indexed": true,
          "internalType": "uint256",
          "name": "proposalId",
          "type": "uint256"
        },
        {
          "indexed": true,
          "internalType": "address",
          "name": "proposer",
          "type": "address"
        }
      ],
      "name": "ProposalExecuted",
      "type": "event"
    },
    {
      "anonymous": false,
      "inputs": [
        {
          "indexed": false,
          "internalType": "uint256",
          "name": "proposalId",
          "type": "uint256"
        },
        {
          "indexed": false,
          "internalType": "address",
          "name": "voter",
          "type": "address"
        },
        {
          "indexed": false,
          "internalType": "bool",
          "name": "inFavor",
          "type": "bool"
        },
        {
          "indexed": false,
          "internalType": "uint256",
          "name": "tokenId",
          "type": "uint256"
        }
      ],
      "name": "Voted",
      "type": "event"
    },
    {
      "inputs": [
        {
          "internalType": "string",
          "name": "_description",
          "type": "string"
        }
      ],
      "name": "createProposal",
      "outputs": [],
      "stateMutability": "nonpayable",
      "type": "function"
    },
    {
      "inputs": [
        {
          "internalType": "uint256",
          "name": "_proposalId",
          "type": "uint256"
        }
      ],
      "name": "executeProposal",
      "outputs": [],
      "stateMutability": "nonpayable",
      "type": "function"
    },
    {
      "inputs": [
        {
          "internalType": "uint256",
          "name": "_proposalId",
          "type": "uint256"
        }
      ],
      "name": "getProposalStatus",
      "outputs": [
        {
          "internalType": "address",
          "name": "",
          "type": "address"
        },
        {
          "internalType": "string",
          "name": "",
          "type": "string"
        },
        {
          "internalType": "uint256",
          "name": "",
          "type": "uint256"
        },
        {
          "internalType": "uint256",
          "name": "",
          "type": "uint256"
        },
        {
          "internalType": "uint256",
          "name": "",
          "type": "uint256"
        },
        {
          "internalType": "uint256",
          "name": "",
          "type": "uint256"
        }
      ],
      "stateMutability": "view",
      "type": "function"
    },
    {
      "inputs": [],
      "name": "getProposals",
      "outputs": [
        {
          "components": [
            {
              "internalType": "uint256",
              "name": "id",
              "type": "uint256"
            },
            {
              "internalType": "address",
              "name": "creator",
              "type": "address"
            },
            {
              "internalType": "uint256",
              "name": "startTime",
              "type": "uint256"
            },
            {
              "internalType": "uint256",
              "name": "endTime",
              "type": "uint256"
            },
            {
              "internalType": "string",
              "name": "description",
              "type": "string"
            },
            {
              "internalType": "uint256",
              "name": "optionA",
              "type": "uint256"
            },
            {
              "internalType": "uint256",
              "name": "optionB",
              "type": "uint256"
            },
            {
              "internalType": "enum DAO.statusProposal",
              "name": "status",
              "type": "uint8"
            }
          ],
          "internalType": "struct DAO.Proposal[]",
          "name": "",
          "type": "tuple[]"
        }
      ],
      "stateMutability": "view",
      "type": "function"
    },
    {
      "inputs": [],
      "name": "nftContract",
      "outputs": [
        {
          "internalType": "contract NFT",
          "name": "",
          "type": "address"
        }
      ],
      "stateMutability": "view",
      "type": "function"
    },
    {
      "inputs": [],
      "name": "owner",
      "outputs": [
        {
          "internalType": "address",
          "name": "",
          "type": "address"
        }
      ],
      "stateMutability": "view",
      "type": "function"
    },
    {
      "inputs": [],
      "name": "renounceOwnership",
      "outputs": [],
      "stateMutability": "nonpayable",
      "type": "function"
    },
    {
      "inputs": [
        {
          "internalType": "address",
          "name": "newOwner",
          "type": "address"
        }
      ],
      "name": "transferOwnership",
      "outputs": [],
      "stateMutability": "nonpayable",
      "type": "function"
    },
    {
      "inputs": [
        {
          "internalType": "uint256",
          "name": "_proposalId",
          "type": "uint256"
        },
        {
          "internalType": "bool",
          "name": "_inFavor",
          "type": "bool"
        }
      ],
      "name": "vote",
      "outputs": [],
      "stateMutability": "nonpayable",
      "type": "function"
    },
    {
      "inputs": [
        {
          "internalType": "address",
          "name": "",
          "type": "address"
        },
        {
          "internalType": "uint256",
          "name": "",
          "type": "uint256"
        }
      ],
      "name": "votes",
      "outputs": [
        {
          "internalType": "bool",
          "name": "",
          "type": "bool"
        }
      ],
      "stateMutability": "view",
      "type": "function"
    },
    {
      "inputs": [],
      "name": "votingToken",
      "outputs": [
        {
          "internalType": "contract VotingToken",
          "name": "",
          "type": "address"
        }
      ],
      "stateMutability": "view",
      "type": "function"
    }
  ],
  "transactionHash": "0x766d4f140a32117467f43c6b2a2cdebc46d77c2e01391644098bc2862c70a67c",
  "args": [
    "0xD30b6fb9E957D27EBF4C6d8BFe664c595FeB0F09",
    "0x7E80A80c195CeBBEC42b7eFdc5706a73F37CF66a"
  ],
  "numDeployments": 8,
  "solcInputHash": "792b691a08e095d3f40703635038e0f2",
  "bytecode": "0x608060405234801561001057600080fd5b5060405161135638038061135683398101604081905261002f916100d5565b61003833610069565b600380546001600160a01b039384166001600160a01b03199182161790915560048054929093169116179055610108565b600080546001600160a01b038381166001600160a01b0319831681178455604051919092169283917f8be0079c531659141344cd1fd0a4f28419497f9722a3daafe3b4186f6b6457e09190a35050565b80516001600160a01b03811681146100d057600080fd5b919050565b600080604083850312156100e857600080fd5b6100f1836100b9565b91506100ff602084016100b9565b90509250929050565b61123f806101176000396000f3fe608060405234801561001057600080fd5b50600436106100a95760003560e01c80638da5cb5b116100715780638da5cb5b146101215780639f2524ee14610146578063b034012314610184578063c9d27afe14610197578063d56d229d146101aa578063f2fde38b146101bd57600080fd5b80630d61b519146100ae578063401853b7146100c357806349c2a1a6146100f157806362564c4814610104578063715018a614610119575b600080fd5b6100c16100bc366004610d4d565b6101d0565b005b6100d66100d1366004610d4d565b6102dc565b6040516100e896959493929190610db3565b60405180910390f35b6100c16100ff366004610dfc565b6103dd565b61010c6106d4565b6040516100e89190610e84565b6100c1610842565b6000546001600160a01b03165b6040516001600160a01b0390911681526020016100e8565b610174610154366004610f80565b600260209081526000928352604080842090915290825290205460ff1681565b60405190151581526020016100e8565b60035461012e906001600160a01b031681565b6100c16101a5366004610faa565b610856565b60045461012e906001600160a01b031681565b6100c16101cb366004610fdf565b610b91565b6000600182815481106101e5576101e5611001565b6000918252602090912060089091020190506001600782015460ff16600181111561021257610212610e6e565b14156102395760405162461bcd60e51b815260040161023090611017565b60405180910390fd5b8060030154421161028c5760405162461bcd60e51b815260206004820152601e60248201527f566f74696e6720706572696f64206973207374696c6c206f6e676f696e6700006044820152606401610230565b60078101805460ff1916600190811790915581015481546040516001600160a01b03909216917f9c85b616f29fca57a17eafe71cf9ff82ffef41766e2cf01ea7f8f7878dd3ec2490600090a35050565b600060606000806000806000600188815481106102fb576102fb611001565b906000526020600020906008020190508060010160009054906101000a90046001600160a01b031681600401826002015483600301548460050154856006015484805461034790611059565b80601f016020809104026020016040519081016040528092919081815260200182805461037390611059565b80156103c05780601f10610395576101008083540402835291602001916103c0565b820191906000526020600020905b8154815290600101906020018083116103a357829003601f168201915b505050505094509650965096509650965096505091939550919395565b6103e5610c0a565b6003546040516370a0823160e01b81523360048201526000916001600160a01b0316906370a082319060240160206040518083038186803b15801561042957600080fd5b505afa15801561043d573d6000803e3d6000fd5b505050506040513d601f19601f820116820180604052508101906104619190611094565b116104bd5760405162461bcd60e51b815260206004820152602660248201527f496e73756666696369656e7420746f6b656e7320746f206372656174652070726044820152651bdc1bdcd85b60d21b6064820152608401610230565b604080516101008101825260015481523360208201524291810182905260009160608201906104ee9061012c6110c3565b815260200184848080601f0160208091040260200160405190810160405280939291908181526020018383808284376000920182905250938552505050602080830182905260408084018390526060938401839052600180548082018255935284517fb10e2d527612073b26eecdfd717e6a320cf44b4afac2b0732d9fcbe2b7fa0cf66008909402938401908155858301517fb10e2d527612073b26eecdfd717e6a320cf44b4afac2b0732d9fcbe2b7fa0cf7850180546001600160a01b0319166001600160a01b03909216919091179055908501517fb10e2d527612073b26eecdfd717e6a320cf44b4afac2b0732d9fcbe2b7fa0cf8840155928401517fb10e2d527612073b26eecdfd717e6a320cf44b4afac2b0732d9fcbe2b7fa0cf983015560808401518051949550859461064d937fb10e2d527612073b26eecdfd717e6a320cf44b4afac2b0732d9fcbe2b7fa0cfa01929190910190610cb4565b5060a0820151600582015560c0820151600682015560e082015160078201805460ff19166001838181111561068457610684610e6e565b021790555050815160608301516040517f98120a6aaa04295520ab4e01c6c1235dd316e822cc9ff31db7b3f197366d18bd93506106c792913391889188916110db565b60405180910390a1505050565b60606001805480602002602001604051908101604052809291908181526020016000905b828210156108395760008481526020908190206040805161010081018252600886029092018054835260018101546001600160a01b0316938301939093526002830154908201526003820154606082015260048201805491929160808401919061076190611059565b80601f016020809104026020016040519081016040528092919081815260200182805461078d90611059565b80156107da5780601f106107af576101008083540402835291602001916107da565b820191906000526020600020905b8154815290600101906020018083116107bd57829003601f168201915b50505091835250506005820154602082015260068201546040820152600782015460609091019060ff16600181111561081557610815610e6e565b600181111561082657610826610e6e565b81525050815260200190600101906106f8565b50505050905090565b61084a610c0a565b6108546000610c64565b565b60006001838154811061086b5761086b611001565b6000918252602090912060089091020190506001600782015460ff16600181111561089857610898610e6e565b14156108b65760405162461bcd60e51b815260040161023090611017565b806002015442101580156108ce575080600301544211155b6109125760405162461bcd60e51b8152602060048201526015602482015274125b9d985b1a59081d9bdd1a5b99c81c195c9a5bd9605a1b6044820152606401610230565b33600090815260026020908152604080832086845290915290205460ff161561098e5760405162461bcd60e51b815260206004820152602860248201527f596f75206861766520616c726561647920766f74656420666f722074686973206044820152671c1c9bdc1bdcd85b60c21b6064820152608401610230565b6003546040516370a0823160e01b81523360048201526000916001600160a01b0316906370a082319060240160206040518083038186803b1580156109d257600080fd5b505afa1580156109e6573d6000803e3d6000fd5b505050506040513d601f19601f82011682018060405250810190610a0a9190611094565b11610a575760405162461bcd60e51b815260206004820152601b60248201527f496e73756666696369656e7420746f6b656e7320746f20766f746500000000006044820152606401610230565b8115610a7957600581018054906000610a6f8361112c565b9190505550610a91565b600681018054906000610a8b8361112c565b91905055505b336000818152600260209081526040808320878452909152808220805460ff191660011790556004805491516334ff261960e21b815292936001600160a01b03929092169263d3fc986492610aee92909189918881019101611147565b602060405180830381600087803b158015610b0857600080fd5b505af1158015610b1c573d6000803e3d6000fd5b505050506040513d601f19601f82011682018060405250810190610b409190611094565b60408051868152336020820152851515818301526060810183905290519192507f7c2de587c00d75474a0c6c6fa96fd3b45dc974cd4e8a75f712bb84c950dce1b5919081900360800190a150505050565b610b99610c0a565b6001600160a01b038116610bfe5760405162461bcd60e51b815260206004820152602660248201527f4f776e61626c653a206e6577206f776e657220697320746865207a65726f206160448201526564647265737360d01b6064820152608401610230565b610c0781610c64565b50565b6000546001600160a01b031633146108545760405162461bcd60e51b815260206004820181905260248201527f4f776e61626c653a2063616c6c6572206973206e6f7420746865206f776e65726044820152606401610230565b600080546001600160a01b038381166001600160a01b0319831681178455604051919092169283917f8be0079c531659141344cd1fd0a4f28419497f9722a3daafe3b4186f6b6457e09190a35050565b828054610cc090611059565b90600052602060002090601f016020900481019282610ce25760008555610d28565b82601f10610cfb57805160ff1916838001178555610d28565b82800160010185558215610d28579182015b82811115610d28578251825591602001919060010190610d0d565b50610d34929150610d38565b5090565b5b80821115610d345760008155600101610d39565b600060208284031215610d5f57600080fd5b5035919050565b6000815180845260005b81811015610d8c57602081850181015186830182015201610d70565b81811115610d9e576000602083870101525b50601f01601f19169290920160200192915050565b6001600160a01b038716815260c060208201819052600090610dd790830188610d66565b90508560408301528460608301528360808301528260a0830152979650505050505050565b60008060208385031215610e0f57600080fd5b823567ffffffffffffffff80821115610e2757600080fd5b818501915085601f830112610e3b57600080fd5b813581811115610e4a57600080fd5b866020828501011115610e5c57600080fd5b60209290920196919550909350505050565b634e487b7160e01b600052602160045260246000fd5b60006020808301818452808551808352604092508286019150828160051b8701018488016000805b84811015610f5557898403603f19018652825180518552888101516001600160a01b0316898601528781015188860152606080820151908601526080808201516101008288018190529190610f0383890182610d66565b60a085810151908a015260c080860151908a015260e0948501519490935091505060028310610f4057634e487b7160e01b85526021600452602485fd5b95909501529487019491870191600101610eac565b50919998505050505050505050565b80356001600160a01b0381168114610f7b57600080fd5b919050565b60008060408385031215610f9357600080fd5b610f9c83610f64565b946020939093013593505050565b60008060408385031215610fbd57600080fd5b8235915060208301358015158114610fd457600080fd5b809150509250929050565b600060208284031215610ff157600080fd5b610ffa82610f64565b9392505050565b634e487b7160e01b600052603260045260246000fd5b60208082526022908201527f50726f706f73616c2068617320616c7265616479206265656e20657865637574604082015261195960f21b606082015260800190565b600181811c9082168061106d57607f821691505b6020821081141561108e57634e487b7160e01b600052602260045260246000fd5b50919050565b6000602082840312156110a657600080fd5b5051919050565b634e487b7160e01b600052601160045260246000fd5b600082198211156110d6576110d66110ad565b500190565b8581526001600160a01b03851660208201526080604082018190528101839052828460a0830137600060a08483010152600060a0601f19601f86011683010190508260608301529695505050505050565b6000600019821415611140576111406110ad565b5060010190565b6001600160a01b03841681526020808201849052606060408301528254600091908290600181811c908281168061117f57607f831692505b85831081141561119d57634e487b7160e01b85526022600452602485fd5b60608801839052608088018180156111bc57600181146111cd576111f8565b60ff198616825287820196506111f8565b60008b81526020902060005b868110156111f2578154848201529085019089016111d9565b83019750505b50949b9a505050505050505050505056fea2646970667358221220eec819c582ac3af9337c8c8d09b0516b27186081f8cfc0c2068c9e7403fef98d64736f6c63430008090033",
  "devdoc": {
    "kind": "dev",
    "methods": {
      "owner()": {
        "details": "Returns the address of the current owner."
      },
      "renounceOwnership()": {
        "details": "Leaves the contract without owner. It will not be possible to call `onlyOwner` functions. Can only be called by the current owner. NOTE: Renouncing ownership will leave the contract without an owner, thereby disabling any functionality that is only available to the owner."
      },
      "transferOwnership(address)": {
        "details": "Transfers ownership of the contract to a new account (`newOwner`). Can only be called by the current owner."
      }
    },
    "version": 1
  },
  "userdoc": {
    "kind": "user",
    "methods": {},
    "version": 1
  },
  "storageLayout": {
    "storage": [
      {
        "astId": 7,
        "contract": "contracts/Dao.sol:DAO",
        "label": "_owner",
        "offset": 0,
        "slot": "0",
        "type": "t_address"
      },
      {
        "astId": 3566,
        "contract": "contracts/Dao.sol:DAO",
        "label": "proposals",
        "offset": 0,
        "slot": "1",
        "type": "t_array(t_struct(Proposal)3584_storage)dyn_storage"
      },
      {
        "astId": 3590,
        "contract": "contracts/Dao.sol:DAO",
        "label": "votes",
        "offset": 0,
        "slot": "2",
        "type": "t_mapping(t_address,t_mapping(t_uint256,t_bool))"
      },
      {
        "astId": 3593,
        "contract": "contracts/Dao.sol:DAO",
        "label": "votingToken",
        "offset": 0,
        "slot": "3",
        "type": "t_contract(VotingToken)4053"
      },
      {
        "astId": 3596,
        "contract": "contracts/Dao.sol:DAO",
        "label": "nftContract",
        "offset": 0,
        "slot": "4",
        "type": "t_contract(NFT)3998"
      }
    ],
    "types": {
      "t_address": {
        "encoding": "inplace",
        "label": "address",
        "numberOfBytes": "20"
      },
      "t_array(t_struct(Proposal)3584_storage)dyn_storage": {
        "base": "t_struct(Proposal)3584_storage",
        "encoding": "dynamic_array",
        "label": "struct DAO.Proposal[]",
        "numberOfBytes": "32"
      },
      "t_bool": {
        "encoding": "inplace",
        "label": "bool",
        "numberOfBytes": "1"
      },
      "t_contract(NFT)3998": {
        "encoding": "inplace",
        "label": "contract NFT",
        "numberOfBytes": "20"
      },
      "t_contract(VotingToken)4053": {
        "encoding": "inplace",
        "label": "contract VotingToken",
        "numberOfBytes": "20"
      },
      "t_enum(statusProposal)3562": {
        "encoding": "inplace",
        "label": "enum DAO.statusProposal",
        "numberOfBytes": "1"
      },
      "t_mapping(t_address,t_mapping(t_uint256,t_bool))": {
        "encoding": "mapping",
        "key": "t_address",
        "label": "mapping(address => mapping(uint256 => bool))",
        "numberOfBytes": "32",
        "value": "t_mapping(t_uint256,t_bool)"
      },
      "t_mapping(t_uint256,t_bool)": {
        "encoding": "mapping",
        "key": "t_uint256",
        "label": "mapping(uint256 => bool)",
        "numberOfBytes": "32",
        "value": "t_bool"
      },
      "t_string_storage": {
        "encoding": "bytes",
        "label": "string",
        "numberOfBytes": "32"
      },
      "t_struct(Proposal)3584_storage": {
        "encoding": "inplace",
        "label": "struct DAO.Proposal",
        "members": [
          {
            "astId": 3568,
            "contract": "contracts/Dao.sol:DAO",
            "label": "id",
            "offset": 0,
            "slot": "0",
            "type": "t_uint256"
          },
          {
            "astId": 3570,
            "contract": "contracts/Dao.sol:DAO",
            "label": "creator",
            "offset": 0,
            "slot": "1",
            "type": "t_address"
          },
          {
            "astId": 3572,
            "contract": "contracts/Dao.sol:DAO",
            "label": "startTime",
            "offset": 0,
            "slot": "2",
            "type": "t_uint256"
          },
          {
            "astId": 3574,
            "contract": "contracts/Dao.sol:DAO",
            "label": "endTime",
            "offset": 0,
            "slot": "3",
            "type": "t_uint256"
          },
          {
            "astId": 3576,
            "contract": "contracts/Dao.sol:DAO",
            "label": "description",
            "offset": 0,
            "slot": "4",
            "type": "t_string_storage"
          },
          {
            "astId": 3578,
            "contract": "contracts/Dao.sol:DAO",
            "label": "optionA",
            "offset": 0,
            "slot": "5",
            "type": "t_uint256"
          },
          {
            "astId": 3580,
            "contract": "contracts/Dao.sol:DAO",
            "label": "optionB",
            "offset": 0,
            "slot": "6",
            "type": "t_uint256"
          },
          {
            "astId": 3583,
            "contract": "contracts/Dao.sol:DAO",
            "label": "status",
            "offset": 0,
            "slot": "7",
            "type": "t_enum(statusProposal)3562"
          }
        ],
        "numberOfBytes": "256"
      },
      "t_uint256": {
        "encoding": "inplace",
        "label": "uint256",
        "numberOfBytes": "32"
      }
    }
  }
}